:1000000048C1000077C1000075C1000073C1000045
:1000100071C100006FC100006DC100006BC1000024
:1000200069C1000067C1000065C1000063C1000034
:1000300061C100005FC100005DC100005BC1000044
:1000400059C1000048C7000055C1000053C100005D
:1000500051C100004FC100004DC1000059C5000052
:1000600049C10000C8C400009DC4000043C1000095
:1000700041C100003FC100003DC100003BC1000084
:10008000FDC6000037C1000035C1000033C10000CB
:1000900031C100002FC100002DC1000049C7000080
:1000A00029C1000027C10000BCC6000023C1000018
:1000B00021C100001FC100001DC1000085C6000055
:1000C00019C1000017C1000015C1000013C10000D4
:1000D00011C100000FC100000DC100000BC10000E4
:1000E00009C10000DB02DE02CD02D102D5021503F8
:1000F000E202E602EC02F002F402FA02FE0202035D
:10010000150308030C03100307634236B79BD8A7F7
:100110001A39685618AEBAAB558C1D3CB7CC57632C
:10012000BD6DEDFD753EF6177231BF000000803FDA
:1001300008000000BE922449123EABAAAA2ABECDF6
:10014000CCCC4C3E00000080BEABAAAAAA3E000068
:100150000000BF000000803F000000000008417860
:10016000D3BB4387D1133D190E3CC3BD4282AD2B97
:100170003E68EC8276BED98FE1A93E4C80EFFFBE8F
:1001800001C4FF7F3F0000000000000021002400A8
:1001900027002A002D003000330001010000040177
:1001A00007010A0100002200250028002B002E0074
:1001B0003100340002010000050108010B010505B2
:1001C0000505070508080808020202020A0A0808CD
:1001D00004040404010101010101010103030303FB
:1001E00003030303040707070C0C0C0C0C0C0C0C8A
:1001F0000202020206060606060606060B0B0B0B9B
:100200000B0B0B0B010210202008081020401020BF
:1002100040800201020108040201010204081020CA
:1002200040808040201008040201800402018040C8
:100230002010080402010804020101020408102031
:100240004080010204081020408000000A0B0209CF
:100250000C0D0E0807030401000000000000000060
:10026000000000000000000000000000000000008E
:10027000000000000000121110000000000000004B
:10028000000000000000000000000000000000006E
:10029000931611241FBECFEFD1E2DEBFCDBF00E029
:1002A0000CBF12E0A0E0B2E0ECE9F8E300E00BBF25
:1002B00002C007900D92AC32B107D9F724E0ACE24E
:1002C000B2E001C01D92AF3AB207E1F711E0C9E414
:1002D000D1E000E006C021970109802FFE010E94B5
:1002E0008E1AC834D10780E00807A9F70E94D60902
:1002F0000C944C1C85CECF92DF92EF92FF920F931D
:100300001F93CF93DF936C017A018B01C0E0D0E0A3
:10031000CE15DF0589F0D8016D918D01D601ED91E3
:10032000FC910190F081E02DC6011995892B11F403
:100330007E0102C02196ECCFC701DF91CF911F91C2
:100340000F91FF90EF90DF90CF900895FC01538DB7
:10035000448D252F30E0842F90E0821B930B54179F
:1003600010F0CF96089501970895FC01918D828D2C
:10037000981761F0828DDF01A80FB11D5D968C91F9
:10038000928D9F5F9F73928F90E008958FEF9FEF04
:100390000895FC01918D828D981731F0828DE80FC0
:1003A000F11D858D90E008958FEF9FEF0895FC017A
:1003B000918D228D892F90E0805C9F4F821B910947
:1003C0008F739927089581EB93E0F1DF21E0892B6A
:1003D00009F420E0822F0895FC01848DDF01A80F2D
:1003E000B11DA35ABF4F2C91848D90E001968F735D
:1003F0009927848FA689B7892C93A089B1898C917C
:1004000080648C93938D848D981306C00288F38941
:10041000E02D80818F7D80830895EF92FF920F936E
:100420001F93CF93DF93EC0181E0888F9B8D8C8DA0
:10043000981305C0E889F989808185FD23C0F62ECF
:100440000B8D10E00F5F1F4F0F731127E02E8C8D67
:10045000E8120BC00FB607FCFACFE889F989808152
:1004600085FFF5CFCE01B8DFF2CF8B8DFE01E80F0F
:10047000F11DE35AFF4FF0820B8FEA89FB898081DF
:10048000806207C0EE89FF896083E889F9898081ED
:100490008064808381E090E0DF91CF911F910F9184
:1004A000FF90EF900895CF93DF93EC01888D882320
:1004B000C1F0EA89FB89808185FD05C0A889B989D9
:1004C0008C9186FD0EC00FB607FCF5CF808185FFAD
:1004D000F2CFA889B9898C9185FFEDCFCE017CDF61
:1004E000E8CFDF91CF91089580E090E0892B19F05B
:1004F0006ADF811125C080E090E0892B41F080E027
:1005000090E0892B21F00E94000081111CC080E046
:1005100090E0892B41F080E090E0892B21F00E944F
:100520000000811113C080E090E0892BA1F080E0F1
:1005300090E0892B81F00E94000081110AC008958B
:100540000E940000D8CF0E940000E1CF0E9400006E
:10055000EACF0C9400000895362F90E0FC01E65B92
:10056000FD4F4491FC01EC5FFD4F2491FC01E254EE
:10057000FE4F9491992309F46BC0442309F455C0AC
:1005800050E0FA013197E231F10508F04EC08827BA
:10059000EE58FF4F8F4F0C948E1A809180008F770A
:1005A00007C0809180008F7D03C080918000877F8D
:1005B000809380003AC084B58F7702C084B58F7D68
:1005C00084BD33C08091B0008F7703C08091B000AC
:1005D0008F7D8093B00029C0809190008F7707C0F5
:1005E000809190008F7D03C080919000877F8093E1
:1005F00090001BC08091A0008F7707C08091A00061
:100600008F7D03C08091A000877F8093A0000DC0E4
:10061000809120018F7707C0809120018F7D03C0DA
:1006200080912001877F80932001E92FF0E0EE0F79
:10063000FF1FEC55FE4FA591B4918FB7F894EC9144
:10064000311103C020952E2301C02E2B2C938FBF78
:1006500008953FB7F8948091410390914203A0918F
:100660004303B091440326B5A89B05C02F3F19F062
:100670000196A11DB11D3FBFBA2FA92F982F882722
:10068000820F911DA11DB11DBC01CD0142E0660F7D
:10069000771F881F991F4A95D1F70895CF92DF924F
:1006A000EF92FF920F931F93CF93DF936C018B0117
:1006B0007A01EC01C555DD4F888187FF04C0FB013D
:1006C0001182108224C08CE08C9D90018D9D300D94
:1006D00011248881A901480F511D87FD5A958091E9
:1006E000AF0290E04817590794F48881A901480F98
:1006F000511D87FD5A95CA01FA01EE0FFF1F8E0F9B
:100700009F1FFC01E055FD4F808186FD19C0888147
:100710008F5F88838CE08C9D90018D9D300D11241E
:100720008881A901480F511D87FD5A958091AF021C
:1007300090E048175907B4F488818C303CF112C01E
:100740008881280F311D87FD3A95F901EE0FFF1FB3
:100750002E0F3F1FF901E055FD4F808160E08F7340
:10076000FBDED5CFF80180819181049680349C49CD
:1007700018F480E49CE904C0F8018081918104961A
:10078000F701918380838FEF888344C0F801408113
:1007900051818881B901680F711D87FD7A95CB0160
:1007A000FB01EE0FFF1F8E0F9F1FFC01E055FD4F59
:1007B00081819281840F951FF701918380838881C5
:1007C000A901480F511D87FD5A95CA01FA01EE0F84
:1007D000FF1F8E0F9F1FFC01E055FD4F808186FF9C
:1007E00019C08881280F311D87FD3A95F901EE0F58
:1007F000FF1F2E0F3F1FF901E055FD4F808161E083
:100800008F73DF91CF911F910F91FF90EF90DF9049
:10081000CF90A2CEDF91CF911F910F91FF90EF90DB
:10082000DF90CF90089585ED8093BC008091BC004F
:1008300084FDFCCF10928D03089540918602262FEF
:1008400030E0240F311D21323105DCF420918D037D
:100850002430C9F4FC0180E090E0861758F4309110
:1008600086022191DC01AC59BD4FA30FB11D2C9321
:100870000196F3CF80918602680F6093860280E034
:10088000089581E0089582E008950895E091460377
:1008900080914503E81730F4F0E0E95BFC4F80817C
:1008A00090E008958FEF9FEF089590914603809117
:1008B0004503981750F4E92FF0E0E95BFC4F2081E5
:1008C00030E09F5F9093460302C02FEF3FEFC901D6
:1008D00008958091450390E020914603821B910981
:1008E0000895CF92DF92EF92FF920F931F93CF93D1
:1008F000DF937C01262F972F8A0180918E03882316
:1009000091F0C62FD72F6E01C40ED51ECC15DD0574
:1009100069F06991D701ED91FC910190F081E02D92
:10092000C7011995F3CF642F822F87DFC801DF91AC
:10093000CF911F910F91FF90EF90DF90CF9008958E
:10094000CF93DF931F92CDB7DEB7698320918E03DB
:100950002223D1F02091B003203240F021E030E09A
:10096000FC013383228380E090E014C080918F03E8
:10097000E82FF0E0E057FC4F998190838F5F8093E0
:100980008F038093B00304C061E0CE01019655DF70
:1009900081E090E00F90DF91CF910895089580E07D
:1009A00090E008951F920F920FB60F9211240BB68C
:1009B0000F922F933F934F935F936F937F938F93F8
:1009C0009F93AF93BF93EF93FF9381EB93E004DD8D
:1009D000FF91EF91BF91AF919F918F917F916F9117
:1009E0005F914F913F912F910F900BBE0F900FBED3
:1009F0000F901F9018951F920F920FB60F9211240F
:100A00000BB60F922F938F939F93EF93FF93E091E9
:100A1000C103F091C2038081E091C703F091C80344
:100A200082FD12C090818091CA038F5F8F732091E5
:100A3000CB03821751F0E091CA03F0E0EF54FC4F72
:100A4000958F8093CA0301C08081FF91EF919F91A0
:100A50008F912F910F900BBE0F900FBE0F901F9094
:100A60001895863308F0865390917B00282F2870C4
:100A7000977F922B90937B008770806480937C009B
:100A800080917A00806480937A0080917A0086FD5C
:100A9000FCCF809178002091790090E0922B08950E
:100AA0008F929F92AF92BF92CF92DF92EF92FF927E
:100AB0006B017C01CEDD4B015C01C114D104E1046A
:100AC000F104E9F0C6DDDC01CB0188199909AA0916
:100AD000BB09883E9340A105B10578F321E0C21A15
:100AE000D108E108F10888EE880E83E0981EA11C69
:100AF000B11CC114D104E104F10421F7DECFFF9051
:100B0000EF90DF90CF90BF90AF909F908F9008951F
:100B10001F920F920FB60F9211242F933F938F9332
:100B20009F93AF93BF9380912C0290912D02A0913F
:100B30002E02B0912F023091400323E0230F2D3776
:100B400020F40196A11DB11D05C026E8230F0296D1
:100B5000A11DB11D2093400380932C0290932D0280
:100B6000A0932E02B0932F028091410390914203F3
:100B7000A0914303B09144030196A11DB11D809340
:100B8000410390934203A0934303B0934403BF9166
:100B9000AF919F918F913F912F910F900FBE0F902A
:100BA0001F901895FC019081903380F5818128E891
:100BB00030E0281B310987FD3395220F331F220FA8
:100BC000331F621773077CF0828128E532E0281B0F
:100BD000310987FD3395220F331F220F331F621710
:100BE00073070CF49B0122503109220F331F4FB7BA
:100BF000F894892F90E0FC01EE0FFF1F8E0F9F1FCE
:100C0000FC01E055FD4F328321834FBF08950F93C0
:100C10001F93CF93DF93EC018881803308F086C067
:100C2000DB01BB27FD01EC5FFD4F8491FD01E25428
:100C3000FE4FA491AA23A1F0B0E0AA0FBB1FFD01B3
:100C4000E657FE4F05911491FD01EC55FE4FA5911D
:100C5000B4919FB7F894D801EC918E2B8C939FBFE1
:100C60008881E82FF0E0DF01AA0FBB1FEA0FFB1F0E
:100C7000E055FD4F6F739081907C692B608360E23B
:100C800072E0FB01E41BF50BAF01F7FF02C04D5F03
:100C90005F4F5595479555954795498340E659E0EF
:100CA000BA01621B730B9B0177FF02C02D5F3F4FA0
:100CB00035952795359527952A836CE00E94821AF1
:100CC0009CE0899FB001112440E050E09A01260F7A
:100CD000371FF901EE0FFF1F2E0F3F1FF901E055DF
:100CE000FD4F908196FD16C04F5F5F4F4C30510510
:100CF00069F7813009F51092800082E080938100CD
:100D00001092850010928400B19A80916F008260E9
:100D100080936F00E881F0E0CF01880F991FE80F02
:100D2000F91FE055FD4F8081806480838881DF91C9
:100D3000CF911F910F910895823061F4109290002D
:100D400080939100109295001092940088BB80933C
:100D50007100E0CF833069F41092A00082E08093AC
:100D6000A1001092A5001092A40089BB809372008C
:100D7000D1CF8111CFCF1092200182E08093210149
:100D800010922501109224018ABB80937300C2CF78
:100D9000FC019091AF029033A0F481E0890F809321
:100DA000AF029083892F90E0FC01EE0FFF1F8E0FA2
:100DB0009F1FFC01E055FD4F88EB9BE092838183F0
:100DC00008958FEF808308951F920F920FB60F92B0
:100DD00011240BB60F922F933F934F935F936F9312
:100DE0007F938F939F93AF93BF93EF93FF9348E2CB
:100DF00051E064E271E080E090E050DCFF91EF911F
:100E0000BF91AF919F918F917F916F915F914F9122
:100E10003F912F910F900BBE0F900FBE0F901F9020
:100E200018951F920F920FB60F9211240BB60F92C6
:100E30002F933F934F935F936F937F938F939F93E2
:100E4000AF93BF93EF93FF9348EA50E064EA70E0FA
:100E500083E090E023DCFF91EF91BF91AF919F91F0
:100E60008F917F916F915F914F913F912F910F9053
:100E70000BBE0F900FBE0F901F9018951F920F92F0
:100E80000FB60F9211240BB60F922F933F934F93EF
:100E90005F936F937F938F939F93AF93BF93EF93E2
:100EA000FF9348E950E064E970E082E090E0F6DB0F
:100EB000FF91EF91BF91AF919F918F917F916F9132
:100EC0005F914F913F912F910F900BBE0F900FBEEE
:100ED0000F901F9018951F920F920FB60F9211242A
:100EE0000BB60F922F933F934F935F936F937F9324
:100EF0008F939F93AF93BF93EF93FF9348E850E096
:100F000064E870E081E090E0C9DBFF91EF91BF9170
:100F1000AF919F918F917F916F915F914F913F9191
:100F20002F910F900BBE0F900FBE0F901F90189532
:100F30001F920F920FB60F9211240BB60F922F93A0
:100F40003F934F935F936F937F938F939F93AF9351
:100F5000BF93EF93FF938091B900887F803609F4A7
:100F60009CC068F5883209F45BC090F4803109F4C4
:100F700054C038F4882309F4F6C0883009F44DC011
:100F8000F5C0883109F44CC0803209F45DC0EEC070
:100F9000803409F468C048F4803309F455C08833BC
:100FA00009F0E4C080938B03D8C0803509F44FC0AA
:100FB000883509F45DC0883409F0D8C0D6C08839B6
:100FC00009F4C7C0A8F4883709F467C038F4883634
:100FD00009F463C0803709F460C0C8C0883809F4D8
:100FE000B8C0803909F45FC0803809F0BFC05BC069
:100FF000803B09F486C038F4803A09F466C0883A28
:1010000009F47FC0B3C0803C09F4A7C0883C09F450
:10101000A4C0883B09F48AC0A9C08091680310C0AD
:1010200090918A0380918903981770F5E0918A0363
:1010300081E08E0F80938A03F0E0E759FC4F8081B6
:101040008093BB0085EC86C080938B038EC0E091BB
:101050008A0381E08E0F80938A038091BB00F0E0C9
:10106000E759FC4F808390918A03809189036EC079
:10107000E0918A0381E08E0F80938A038091BB0008
:10108000F0E0E759FC4F808380918C0381116DC0A3
:1010900081E08093670384EA61C083E080938D03DD
:1010A0001092AA02CFCF8091AA02803208F051C0DC
:1010B000E091AA0281E08E0F8093AA028091BB008A
:1010C000F0E0E657FD4F8083BDCF85EC8093BC00F8
:1010D00010928D038091AA02803230F4E091AA022E
:1010E000F0E0E657FD4F10826091AA0270E0E091B7
:1010F0008802F09189028AE892E019951092AA027A
:1011000035C084E080938D0310928702109286028E
:10111000E0918402F09185021995809186028111F7
:1011200005C081E08093860210926402E0918702FC
:1011300081E08E0F80938702F0E0EC59FD4F8081B3
:101140008093BB009091870280918602981708F4E3
:1011500079CF85E88093BC0009C085EC8093BC0002
:1011600010928D0303C010928B035DDBFF91EF9112
:10117000BF91AF919F918F917F916F915F914F91AF
:101180003F912F910F900BBE0F900FBE0F901F90AD
:10119000189510928D0381E080938C031092670361
:1011A00061E084E1D9D961E085E1D6D9E9EBF0E0ED
:1011B00080818E7F808380818D7F808388E480938F
:1011C000B80085E48093BC0008952091B00390910D
:1011D000AE04213208F04AC080918D038111FCCF0A
:1011E00032E030938D0331E030938C033FEF309346
:1011F0008B0310928A0320938903A0E9B3E049E6A8
:1012000053E0FA013E2F341B321718F43D9131930D
:10121000F9CF1092680320916803990F922B909355
:10122000680390916703913061F410926703909185
:1012300068039093BB009091BC0093FDF8CF95ECB0
:1012400001C095EE9093BC0090918D039230E1F334
:1012500090918B039F3F79F080918B03803241F016
:1012600080918B03803331F084E005C081E003C0BE
:1012700082E001C083E010928F031092B0031092BD
:101280008E03089591E090938E038093AE041092A4
:101290008F031092B0030895CF93DF93D82FC62FFA
:1012A0008091A704EFDF6D2F8EE494E049DB6C2F73
:1012B0008EE494E045DB89DF81E0DF91CF910895F2
:1012C000E7EAF4E085839683682F8DE390E0E4DF1E
:1012D0006EE170E080E090E0E3CB90918D0391119E
:1012E000FCCF91E090938D0390938C032FEF20938C
:1012F0008B0310928A03260F20938903909368032F
:1013000090916803880F892B80936803809167030D
:10131000813061F410926703809168038093BB0071
:101320008091BC0083FDF8CF85EC01C085EE8093F1
:10133000BC0080918D038130E1F380918A03861790
:1013400010F460918A03A9E6B3E027E433E0F901E1
:101350008E2F821B861718F48D918193F9CF862FDB
:101360000895CF93DF93C7EAD4E088818BDF60E0F4
:101370008EE494E0E5DA29DF61E08881AEDF109247
:101380004603809345038EE494E08FDADF91CF919A
:101390000895682F8EE494E0D3CA613208F060E2C9
:1013A0009CDF10924603809345030895CF93DF930B
:1013B000CDB7DEB7C758D1090FB6F894DEBF0FBE60
:1013C000CDBF789484B5826084BD84B5816084BDCE
:1013D00085B5826085BD85B5816085BD80916E00D3
:1013E000816080936E001092810080918100826004
:1013F0008093810080918100816080938100809141
:1014000080008160809380008091B100846080932F
:10141000B1008091B00081608093B0008091910014
:10142000826080939100809191008160809391000F
:10143000809190008160809390008091A1008260F3
:101440008093A1008091A10081608093A100809190
:10145000A00081608093A000809121018260809330
:1014600021018091210181608093210180912001DF
:1014700081608093200180917A00846080937A005B
:1014800080917A00826080937A0080917A008160F6
:1014900080937A0080917A00806880937A0010921D
:1014A000C100109246031092450310928F031092D0
:1014B000B0036FDEE091C103F091C20382E080834C
:1014C000E091BD03F091BE031082E091BF03F09163
:1014D000C00380E180831092C903E091C503F091BD
:1014E000C60386E08083E091C303F091C40380814A
:1014F00080618083E091C303F091C40380818860A0
:101500008083E091C303F091C4038081806880836D
:10151000E091C303F091C40380818F7D808310929A
:1015200046031092450310928F031092B00331DEF0
:1015300018DF803A41F480E090E0C2DE60E28FE3A1
:1015400090E0AADE0AC068EE73E080E090E0A8DADE
:1015500008DF803A09F04DC0EECF03DF803A31F06A
:101560006AE070E080E090E09BDAF7CF62E370E041
:1015700080E090E095DA60E08EE390E08DDE6AE056
:1015800070E080E090E08CDA60E087E090E084DE5C
:1015900060E08FE390E080DE6AE070E080E090E061
:1015A0007FDA8CE090E08CDE64E170E080E090E037
:1015B00077DA0091AC041091AD0480E090E080DE19
:1015C00069E170E080E090E06BDA60E087E090E055
:1015D00063DE60E08FE390E05FDE6AE070E080E071
:1015E00090E05EDAC8016CDE64E170E080E090E0DB
:1015F00057DA86E747DE8EE190E0CBDEE6DD6AE093
:1016000070E080E090E04CDAE2E8AE2EE4E0BE2E3E
:1016100000EA10E086E736DEC801BBDED6DD62E018
:1016200070E086E790E0B9DE8EE494E03ED9982E33
:101630008EE494E03AD9D92CC12C8C299D29D5016E
:101640008D939D935D010E5F1F4F003B110511F7B8
:1016500080918204909183049F709093830480937F
:101660008204109291041092900487E70BDE8EE1C1
:1016700090E08FDEAADD6AE070E080E090E010DAB2
:1016800076E6C72E74E0D72E00EA10E087E7FADD91
:10169000C8017FDE9ADD62E070E087E790E07DDEE2
:1016A0008EE494E002D9B82E8EE494E0FED8FB2CB0
:1016B000E12C8E299F29F601819391936F010E5F92
:1016C0001F4F003B110511F71092A20480E090E437
:1016D000A9E7B4E48093A3049093A404A093A50481
:1016E000B093A60420ED37E048EE53E069E070E0E7
:1016F00083E694E08CDA20ED37E048EE53E06AE0D0
:1017000070E080E694E083DA20ED37E048EE53E0C5
:101710006BE070E08DE594E07ADA20E639E040E2B3
:1017200052E068E070E08AE594E071DA8CED95E0D3
:10173000909331028093300290933502809334026B
:1017400090933902809338028AE590E090933D02AD
:1017500080933C0268EE73E080E090E0A1D99E01A6
:10176000295D3F4F6E963FAF2EAF6E97AE014F5F34
:101770005F4FA0965FAF4EAFA097BE01655B7F4FF6
:10178000A2967FAF6EAFA2976A5FC957DF4F68839B
:10179000C758D04084E26E96AEADBFAD6E971D9235
:1017A0008A95E9F764E2462E512C612C712C4FA2E8
:1017B00058A669A67AA68091A8049091A904A09140
:1017C000AA04B091AB048BA79CA7ADA7BEA723E04A
:1017D00030E040E050E02FA738AB49AB5AAB2FB711
:1017E000F89480912C0290912D02A0912E02B0913C
:1017F0002F022FBF8FAB98AFA9AFBAAF8CE0A096E6
:10180000AEADBFADA0971D928A95E9F786E0A2968E
:10181000EEADFFADA29711928A95E9F78091A704EA
:1018200031DD6AE18EE494E08BD8CFDC66E0809114
:10183000A70453DD10924603809345038E01055B98
:101840001F4F8EE494E031D8D8018D938D01C95794
:10185000DF4F4880C758D0404A12F3CF2D966FAD66
:101860002D9770E0762F66272C968FAD2C97682BDE
:10187000072E000C880B990B0E94F51620E030E033
:1018800040E85DE30E943017EE966CAF7DAF8EAFFF
:101890009FAFEE972F966FAD2F9770E0762F66274C
:1018A0002E968FAD2E97682B072E000C880B990B68
:1018B0000E94F51620E030E040E85DE30E9430171A
:1018C000C258DF4F688379838A839B83CE57D04089
:1018D00061966FAD619770E0762F662760968FAD49
:1018E0006097682B072E000C880B990B0E94F51649
:1018F00020E030E040E85DE30E943017CE57DF4F34
:10190000688379838A839B83C258D040EE964CAC1F
:101910005DAC6EAC7FACEE974BAE5CAE6DAE7EAEAA
:10192000C258DF4F488059806A807B80CE57D040B4
:1019300023964CAE5DAE6EAE7FAE239727966CAF0E
:101940007DAF8EAF9FAF279786E79CDC8AE490E05F
:1019500020DD3BDC64E170E080E090E0A1D886E728
:1019600091DC80E090E015DD30DC63E070E086E73C
:1019700090E013DD1092920410929304109294045C
:10198000109295048EE494E00E9455044C01990F46
:10199000AA08BB088092920490929304A0929404A7
:1019A000B09295048EE494E00E945504BA2CA92CC0
:1019B000982C88246C01990FEE08FF08C828D928B4
:1019C000EA28FB28C0929204D0929304E0929404F7
:1019D000F09295048EE494E00E945504FE2CED2CC8
:1019E000DC2CCC24092E000CAA0BBB0BC82AD92A4C
:1019F000EA2AFB2AC0929204D0929304E0929404C3
:101A0000F092950486E73EDC8AE590E0C2DCDDDBFF
:101A100064E170E080E090E043D886E733DC80E06A
:101A200090E0B7DCD2DB63E070E086E790E0B5DC05
:101A300010929604109297041092980410929904B0
:101A40008EE494E00E9455044C01990FAA08BB084B
:101A50008092960490929704A0929804B092990470
:101A60008EE494E00E945504BA2CA92C982C88246A
:101A70006C01990FEE08FF08C828D928EA28FB282E
:101A8000C0929604D0929704E0929804F092990440
:101A90008EE494E00E945504FE2CED2CDC2CCC242A
:101AA000092E000CAA0BBB0BC82AD92AEA2AFB2A4A
:101AB000C0929604D0929704E0929804F092990410
:101AC00080918C0490918D04A0E0B0E0BA2FA92FF2
:101AD000982F882726013701481A590A6A0A7B0A73
:101AE0002091A204CA57DF4F2883C658D040E09106
:101AF0008804F0918904809084049090850440913A
:101B00009204509193046091940470919504A69668
:101B10004CAF5DAF6EAF7FAFA697A12CB12C21303B
:101B200009F07AC1940140E050E060E070E080E0AC
:101B300090E000E10E94EB1B1901AB964FAFAB9711
:101B4000E2965FAFE297E3966FAFE397E4967FAFDD
:101B5000E4974C019F0140E050E0C301B2010E94B4
:101B6000E71AF22E032F142FB52FF62FE72FD82EBA
:101B7000E92EA0E00E94401C5CF4AFE70E942B1C01
:101B8000F22E032F142FB52FF62FE72FD82EE92E84
:101B90002F2D302F412F5B2F6F2F7E2F8D2D9E2DC0
:101BA00007E00E94041C59016A017B018C0191012C
:101BB000AB964FADAB97E2965FADE297E3966FAD14
:101BC000E397E4967FADE497C4010E94221CE2965D
:101BD0002FAFE297E3963FAFE397E4964FAFE497DA
:101BE000E6965FAFE697E7966FAFE797E8967FAF29
:101BF000E897E9968FAFE997EA969FAFEA97E09169
:101C00008A04F0918B04809086049090870494015C
:101C100040E050E060E070E080E090E001E10E9490
:101C2000EB1B1901AB964FAFAB97AF965FAFAF977A
:101C3000E0966FAFE097E1967FAFE1974C019F018F
:101C400040E050E0C301B2010E94E71AF22E032FD8
:101C5000142FB52FF62FE72FD82EE92EA0E00E94E3
:101C6000401C5CF4AFE30E942B1CF22E032F142FB8
:101C7000B52FF62FE72FD82EE92E2F2D302F412FFD
:101C80005B2F6F2F7E2F8D2D9E2D06E00E94041C52
:101C900059016A017B018C019101AB964FADAB9765
:101CA000AF965FADAF97E0966FADE097E1967FADF1
:101CB000E197C4010E94221CAF962FAFAF97932EDD
:101CC000842E352E262EE0967FAFE097E1968FAFDB
:101CD000E197E5969FAFE597A6964CAD5DAD6EADED
:101CE0007FADA6979A01AB0160E070E0CB01A396AF
:101CF0002FAFA397A4963FAFA497A5964FAFA597F4
:101D0000A6965FAFA697A7966FAFA797A8967FAF47
:101D1000A897A9968FAFA997AA969FAFAA97E29680
:101D2000AFACE297E396BFACE397E496CFACE49711
:101D3000E696DFACE697E796EFACE797E896FFAC60
:101D4000E897E9960FADE997EA961FADEA9760E04C
:101D500070E080E090E00E94961AF22E032F142F7C
:101D6000B52FF62FE72FD82EE92EA0E00E94401CB9
:101D700084F421503109404E5F4F6F4F7F4F8F4F9A
:101D80009F4FF22E032F142FB52FF62FE72FD82EAB
:101D9000E92E2F2D302F412F5B2F6F2F7E2F8D2D72
:101DA0009E2D05E10E94041CAF96AFACAF97B92CF5
:101DB000C82CD32CE22CE096FFACE097E1960FAD57
:101DC000E197E5961FADE5970E94371CF22E032F91
:101DD000142FB52FF62FE72FD82EE92EA0E00E9462
:101DE000401C84F4215030484F4F5F4F6F4F7F4F5E
:101DF0008F4F9F4FF22E032F142FB52FF62FE72F63
:101E0000D82EE92E2F2D302F412F5B2F6F2F7E2FB5
:101E10008D2D9E2D0FE07DC19401A50160E070E045
:101E200080E090E00FE00E94EB1B1901AB964FAFF2
:101E3000AB97E2965FAFE297E3966FAFE397E496D6
:101E40007FAFE4974C019F0140E050E0C301B20135
:101E50000E94E71AF22E032F142FB52FF62FE72F2B
:101E6000D82EE92EA0E00E94401C84F421503F4F60
:101E70004F4F5F4F6F4F7F4F8F4F9F4FF22E032F6C
:101E8000142FB52FF62FE72FD82EE92E2F2D302F18
:101E9000412F5B2F6F2F7E2F8D2D9E2D08E00E94EE
:101EA000041C59016A017B018C019101AB964FAD75
:101EB000AB97E2965FADE297E3966FADE397E4965A
:101EC0007FADE497C4010E94221CE2962FAFE297F7
:101ED000E3963FAFE397E4964FAFE497E6965FAFA4
:101EE000E697E7966FAFE797E8967FAFE897E996B2
:101EF0008FAFE997EA969FAFEA97E0918A04F09155
:101F00008B048090860490908704940140E050E018
:101F100060E070E080E090E000E10E94EB1B1901BE
:101F2000AB964FAFAB97AF965FAFAF97E0966FAF03
:101F3000E097E1967FAFE1974C019F0140E050E0D0
:101F4000C301B2010E94E71AF22E032F142FB52FFE
:101F5000F62FE72FD82EE92EA0E00E94401C5CF45B
:101F6000AFE70E942B1CF22E032F142FB52FF62F54
:101F7000E72FD82EE92E2F2D302F412F5B2F6F2FDB
:101F80007E2F8D2D9E2D07E00E94041C59016A01B1
:101F90007B018C019101AB964FADAB97AF965FADD6
:101FA000AF97E0966FADE097E1967FADE197C40102
:101FB0000E94221CAF962FAFAF97932E842E352E02
:101FC000262EE0967FAFE097E1968FAFE197E596FA
:101FD0009FAFE597A6964CAD5DAD6EAD7FADA69774
:101FE0009A01AB0160E070E0CB01A3962FAFA397FD
:101FF000A4963FAFA497A5964FAFA597A6965FAFBF
:10200000A697A7966FAFA797A8967FAFA897A99610
:102010008FAFA997AA969FAFAA97E296AFACE29727
:10202000E396BFACE397E496CFACE497E696DFACDB
:10203000E697E796EFACE797E896FFACE897E99666
:102040000FADE997EA961FADEA9760E070E080E097
:1020500090E00E94961AF22E032F142FB52FF62F20
:10206000E72FD82EE92EA0E00E94401C84F42150D6
:102070003109404E5F4F6F4F7F4F8F4F9F4FF22E72
:10208000032F142FB52FF62FE72FD82EE92E2F2D43
:10209000302F412F5B2F6F2F7E2F8D2D9E2D05E131
:1020A0000E94041CAF96AFACAF97B92CC82CD32CB0
:1020B000E22CE096FFACE097E1960FADE197E59654
:1020C0001FADE5970E94371CF22E032F142FB52F5A
:1020D000F62FE72FD82EE92EA0E00E94401C84F4B2
:1020E0002150304E4F4F5F4F6F4F7F4F8F4F9F4F5D
:1020F000F22E032F142FB52FF62FE72FD82EE92E0F
:102100002F2D302F412F5B2F6F2F7E2F8D2D9E2D4A
:102110000DE00E94041C20939E0430939F04409382
:10212000A0045093A10420918E0430918F0440E0CC
:1021300050E0C301B2010E94E71AF22E032F142FC0
:10214000B52FF62FE72FD82EE92EA0E00E94401CD5
:1021500084F42150310940485F4F6F4F7F4F8F4FBC
:102160009F4FF22E032F142FB52FF62FE72FD82EC7
:10217000E92E2F2D302F412F5B2F6F2F7E2F8D2D8E
:102180009E2D07E10E94041C59016A01C601B50198
:102190006053784F8F4F9F4FAE966CAF7DAF8EAF31
:1021A0009FAFAE9760939A0470939B0480939C04B6
:1021B00090939D04CA57DF4F7881C658D040713044
:1021C00009F099C0AE968CAD9DADAEADBFADAE97EA
:1021D000803D9740A105B1050CF049C144E050E0B5
:1021E00064E272E081EB93E00E947B0142E050E008
:1021F00069E272E081EB93E00E947B01C301B201CE
:10220000A30192010E94E71A29013A01B62FA72FD4
:10221000F82FE92F02E00E94EB1B52016301EB2E25
:10222000FA2E0F2F1E2F0E94371C02E00E94EB1B7C
:102230000F2F0E94371CF22E032F142FB52FF62FCD
:10224000E72FD82EE92EA0E00E94401C84F42150F4
:10225000310941095109684F7F4F8F4F9F4FF22E2F
:10226000032F142FB52FF62FE72FD82EE92E2F2D61
:10227000302F412F5B2F6F2F7E2F8D2D9E2D03E250
:102280000E94041CA3962FAFA397A4963FAFA497D8
:10229000A5964FAFA597A6965FAFA69780919A0493
:1022A00090919B04A0919C04B0919D04BC01CD0130
:1022B000605D7740810991099B01AC010E94731A0E
:1022C000AFE1B0E09B01AC019BD67B018C01E3E068
:1022D00015950795F794E794EA95D1F7AFE3B0E049
:1022E0008FD62B013C01F5E0759467945794479481
:1022F000FA95D1F7C8C0AE962CAD3DAD4EAD5FADF1
:10230000AE97203D3740410551050CF09AC0C301FE
:10231000B201A30192010E94E71A59016A017B01EF
:10232000E82F192F02E00E94EB1B0E2F0E94371C92
:10233000F22E032F142FB52FF62FE72FD82EE92ECC
:10234000A0E00E94401C84F4215031094109510948
:102350006E4F7F4F8F4F9F4FF22E032F142FB52FAD
:10236000F62FE72FD82EE92E2F2D302F412F5B2F60
:102370006F2F7E2F8D2D9E2D01E20E94041CA396AF
:102380002FAFA397A4963FAFA497A5964FAFA5975D
:10239000A6965FAFA697AE966CAD7DAD8EAD9FADA8
:1023A000AE97605D7740810991099B01AC010E9465
:1023B000731AA3E0B0E09B01AC0122D67B018C0133
:1023C00015950795F794E794A5E0B0E019D62B0191
:1023D0003C0173E075946794579447947A95D1F7CC
:1023E000AE968CAD9DADAEADBFADAE97813CE9EF85
:1023F0009E07EFEFAE07BE070CF045C0BC01CD0154
:1024000064527A4F8F4F9F4F9B01AC010E94731A09
:102410005B016C01A7E0B0E09B01AC01F1D5E60ED9
:10242000F71E081F191FD601C50122E0880F991F4A
:10243000AA1FBB1F2A95D1F7480E591E6A1E7B1E84
:1024400022C0A6019501C601B5010E94731A7B0145
:102450008C0184E015950795F794E7948A95D1F758
:10246000A6961CAE1DAE1EAE1FAEA69709C0A696C0
:102470001CAE1DAE1EAE1FAEA697E12CF12C87013F
:10248000412C512C3201A8019701550F220B322FFC
:10249000A901AE962CAF3DAF4EAF5FAFAE97AF96F2
:1024A0002FADAF97392D482D532D622DE0967FAD7E
:1024B000E097E1968FADE197E5969FADE5975701DF
:1024C0006801AB96EFACAB97FE2C0E2D1E2D0E9433
:1024D000371C922E832E342E252EAF966FAFAF97DA
:1024E000E0967FAFE097E1968FAFE197E5969FAFDB
:1024F000E597B301A201770F440B542FBA01AE96B2
:102500004CAF5DAF6EAF7FAFAE97E2962FADE29767
:10251000E3963FADE397E4964FADE497E6965FAD63
:10252000E697E7966FADE797E8967FADE897E9966F
:102530008FADE997EA969FADEA9752016301AB969A
:10254000EFACAB97FE2C0E2D1E2D0E94371C5901AF
:102550006A017B018C012091A20460919204709128
:1025600093048091940490919504AE966CAF7DAFE6
:102570008EAF9FAFAE9780919A0490919B04A091EB
:102580009C04B0919D04A6964CAC5DAC6EAC7FAC47
:10259000A69784199509A609B70980939A04909380
:1025A0009B04A0939C04B0939D04AE964CAD5DAD8E
:1025B0006EAD7FADAE97213009F060C09A01AB01DE
:1025C00060E070E0CB01A3962FAFA397A4963FAF36
:1025D000A497A5964FAFA597A6965FAFA697A79687
:1025E0006FAFA797A8967FAFA897A9968FAFA99727
:1025F000AA969FAFAA9760E070E080E090E096D73F
:10260000F22E032F142FB52FF62FE72FD82EE92EF9
:10261000A0E00E94401C84F421503109404E5F4FDD
:102620006F4F7F4F8F4F9F4FF22E032F142FB52FD9
:10263000F62FE72FD82EE92E2F2D302F412F5B2F8D
:102640006F2F7E2F8D2D9E2D05E10E94041CA92C3D
:10265000B82CC32CD22CAF96EFACAF97E096FFAC62
:10266000E097E1960FADE197E5961FADE5970E94E3
:10267000371CA12CB12CF2E3CF2E60C09A01AB0124
:1026800060E070E0CB01A3962FAFA397A4963FAF75
:10269000A497A5964FAFA597A6965FAFA697A796C6
:1026A0006FAFA797A8967FAFA897A9968FAFA99766
:1026B000AA969FAFAA9760E070E080E090E036D7DE
:1026C000F22E032F142FB52FF62FE72FD82EE92E39
:1026D000A0E00E94401C84F421503109404E5F4F1D
:1026E0006F4F7F4F8F4F9F4FF22E032F142FB52F19
:1026F000F62FE72FD82EE92E2F2D302F412F5B2FCD
:102700006F2F7E2F8D2D9E2D05E10E94041CA92C7C
:10271000B82CC32CD22CAF96EFACAF97E096FFACA1
:10272000E097E1960FADE197E5961FADE5970E9422
:10273000371CA12CE0E4BE2ECC24C394D12CE12C78
:10274000F12C00E010E079D720939E0430939F0491
:102750004093A0045093A10487E70E94420988E4B3
:1027600090E00E94C9090E94E5086AE070E080E0FC
:1027700090E00E94500587E70E94420980E090E0C7
:102780000E94C9090E94E50863E070E087E790E0D5
:102790000E94CD091092760410927704109278046A
:1027A000109279048EE494E00E9455044C01990F34
:1027B000AA08BB088092760490927704A0927804CD
:1027C000B09279048EE494E00E945504BA2CA92CAE
:1027D000982C88246C01990FEE08FF08C828D92886
:1027E000EA28FB28C0927604D0927704E09278041D
:1027F000F09279048EE494E00E945504FE2CED2CB6
:10280000DC2CCC24AC01990F660B770BD701C601E9
:10281000842B952BA62BB72B80937604909377046B
:10282000A0937804B0937904692F7A2F8B2F99277E
:1028300060937E0470937F0480938004909381045E
:10284000D2D26B017C0120E030E040E850E4E6D4D5
:102850004B015C0120E030E040E450E4C701B601E8
:10286000DDD42B013C01609168047091690480E023
:1028700090E0B9D220E030E040E050ECF1D227E225
:1028800037ED48E552E662D4A5019401E9D24B0147
:102890005C0160916A0470916B0480E090E0A3D2C7
:1028A00020E030E040E850E4DBD22AEC3BE14EE0AF
:1028B0005AE54CD4A3019201D3D29B01AC01C501CE
:1028C000B401E0D34B015C0160916C0470916D0424
:1028D00080E090E088D220E030E040E050ECC0D2D0
:1028E00027EB33E44AEB51E531D42B013C01A7013E
:1028F0009601C701B601B4D29B01AC01C301B2017C
:10290000AFD29B01AC01C501B401BCD34B015C014A
:1029100060916E0470916F0480E090E064D220E0DA
:1029200034E244E759E412D4A701960199D29B01FD
:10293000AC01C501B401A6D36B017C0160917004A8
:102940007091710480E090E04ED220E030E040ECE5
:102950005FEB86D220E030E048EC52E4F7D39B01F5
:10296000AC01C701B6018ED360937A0470937B04E7
:1029700080937C0490937D0481EB93E00E94B501E9
:102980000F97D1F7BE01655B7F4F7B016B0100E0C4
:1029900010E02FB7F89480912C0290912D02A09115
:1029A0002E02B0912F022FBF8093B9039093BA03E8
:1029B000A093BB03B093BC03E091B103F091B203C9
:1029C0000284F385E02D81EB93E0199597FD09C012
:1029D000D6018D936D010F5F1F4F01311105C9F6AF
:1029E00024C02FB7F89480912C0290912D02A091D1
:1029F0002E02B0912F022FBF4091B9035091BA031C
:102A00006091BB037091BC03841B950BA60BB70BA5
:102A10004091B5035091B6036091B7037091B8032C
:102A200084179507A607B70738F2EE964CAC5DAC55
:102A30006EAC7FACEE9740924002509241026092A1
:102A4000420270924302C258DF4F488059806A8028
:102A50007B80CE57D0404092440250924502609213
:102A6000460270924702CE57DF4F488059806A80F5
:102A70007B80C258D04040924802509249026092F6
:102A80004A0270924B0260919A0470919B0480916B
:102A90009C0490919D04A9D120E030E048EC52E4E0
:102AA00055D360934C0270934D0280934E029093E5
:102AB0004F0260919E0470919F048091A0049091B8
:102AC000A10493D120E030E048EC52E4C9D120E0E9
:102AD0003AED45EC57E4D5D24B015C012AE038EEE3
:102AE0004CE151E46091A3047091A4048091A50489
:102AF0009091A604B5D19B01AC01C501B40126D3C8
:102B0000609350027093510280935202909353024B
:102B10008AE30E943105BC01990F880B990B65D19E
:102B200020E030E040EA51E49BD120E030EC4FE778
:102B300054E40CD360935402709355028093560270
:102B40009093570289E30E943105BC01990F880BCD
:102B5000990B4BD120E030E040E251E481D120E0FC
:102B600030EC4FE754E4F2D260935802709359026C
:102B700080935A0290935B0288E30E943105BC0166
:102B8000990F880B990B31D120E030E040E251E4FD
:102B900067D120E030EC4FE754E4D8D260935C0278
:102BA00070935D0280935E0290935F0287E30E94C0
:102BB0003105BC01990F880B990B17D120E030E04B
:102BC00040E251E44DD120E030EC4FE754E4BED276
:102BD000609360027093610280936202909363023B
:102BE0000131110529F080EF898381E090E01EC05A
:102BF00080E090E0D7012D917D01FC01E05DFD4F6B
:102C00002083019680319105A9F7EDCFF901E40FFA
:102C1000F51FE05CFD4F60816D932F5F3F4F2430C7
:102C20003105A1F704968532910561F0A1E0B0E08D
:102C3000AC0FBD1FA80FB91F20E030E0AC01415020
:102C40005109E4CF8AE08EA346E250E0BE016F5FF7
:102C50007F4F81EB93E00E947B0160913002709185
:102C6000310283E694E00E94D205609134027091B3
:102C7000350280E694E00E94D2056091380270919E
:102C800039028DE594E00E94D20560913C0270917A
:102C90003D026032B2E07B070CF03DC077FD06C01C
:102CA000653B71052CF064EB70E002C060E070E001
:102CB00080915B0428E830E06901C81AD10887FDDB
:102CC000D394CC0CDD1CCC0CDD1C0D2C000CEE08C0
:102CD000FF0880915C0428E532E0281B310987FD5C
:102CE0003395220F331F220F331FC901330FAA0B55
:102CF000BB0B9C01AD012C193D094E095F09DB019D
:102D000089D124EB30E040E050E05ED1C20ED31E0A
:102D1000E41EF51EB6018AE594E00E94D2050E94E9
:102D200074020C94CA0BE1EBF3E01382128288EE7A
:102D300093E0A0E0B0E084839583A683B78324E08A
:102D400032E03183208325EC30E03587248724EC82
:102D500030E03787268720EC30E0318B208B21EC68
:102D600030E0338B228B22EC30E0358B248B26EC49
:102D700030E0378B268B118E128E138E148EEEE47C
:102D8000F4E01382128284839583A683B78386E15D
:102D900092E091838083E7EAF4E087E390E0A0E0AB
:102DA000B0E081839283A383B48388E2808380E050
:102DB00090EAA0E8B4E48093A3049093A404A093C1
:102DC000A504B093A60483E694E00E94C80680E6BA
:102DD00094E00E94C8068DE594E00E94C8068AE54A
:102DE00094E00C94C806E89409C097FB3EF49095D3
:102DF0008095709561957F4F8F4F9F4F9923A9F0D4
:102E0000F92F96E9BB279395F69587957795679562
:102E1000B795F111F8CFFAF4BB0F11F460FF1BC0A6
:102E20006F5F7F4F8F4F9F4F16C0882311F096E939
:102E300011C0772321F09EE8872F762F05C06623E7
:102E400071F096E8862F70E060E02AF09A95660FA0
:102E5000771F881FDAF7880F9695879597F9089559
:102E60000BD078C069D028F06ED018F0952309F007
:102E70005AC05FC01124A2C07ED0A0F3959FD1F3A9
:102E8000950F50E0551F629FF001729FBB27F00D18
:102E9000B11D639FAA27F00DB11DAA1F649F66276D
:102EA000B00DA11D661F829F2227B00DA11D621FBC
:102EB000739FB00DA11D621F839FA00D611D221F76
:102EC000749F3327A00D611D231F849F600D211D5A
:102ED000822F762F6A2F11249F5750408AF0E1F0FD
:102EE00088234AF0EE0FFF1FBB1F661F771F881F46
:102EF00091505040A9F79E3F510570F014C05EC03C
:102F00005F3FECF3983EDCF3869577956795B79530
:102F1000F795E7959F5FC1F7FE2B880F911D96955A
:102F2000879597F9089597F99F6780E870E060E0CA
:102F300008959FEF80EC089500240A941616170652
:102F400018060906089500240A941216130614069A
:102F500005060895092E0394000C11F4882352F0FD
:102F6000BB0F40F4BF2B11F460FF04C06F5F7F4FB5
:102F70008F4F9F4F089557FD9058440F551F59F09C
:102F80005F3F71F04795880F97FB991F61F09F3F56
:102F900079F087950895121613061406551FF2CF7F
:102FA0004695F1DF08C0161617061806991FF1CFCF
:102FB00086957105610508940895E894BB276627F6
:102FC0007727CB0197F90895052E97FB16F4009407
:102FD0000FD057FD05D024D007FC02D046F408C01E
:102FE00050954095309521953F4F4F4F5F4F089535
:102FF00090958095709561957F4F8F4F9F4F089565
:1030000031D0A59F900DB49F900DA49F800D911D70
:1030100011240895B7FFF4CFF3DF821B930B0895BB
:10302000A1E21A2EAA1BBB1BFD010DC0AA1FBB1FCC
:10303000EE1FFF1FA217B307E407F50720F0A21B3E
:10304000B30BE40BF50B661F771F881F991F1A94AB
:1030500069F760957095809590959B01AC01BD01D5
:10306000CF010895A29FB001B39FC001A39F700D2F
:10307000811D1124911DB29F700D811D1124911D80
:1030800008955058BB27AA270ED064CF55DF30F0E3
:103090005ADF20F031F49F3F11F41EF44ACF0EF4B2
:1030A000E095E7FB40CFE92F66DF80F3BA176207B0
:1030B00073078407950718F071F49EF57ECF0EF420
:1030C000E0950B2EBA2FA02D0B01B90190010C0138
:1030D000CA01A0011124FF27591B99F0593F50F450
:1030E000503E68F11A16F040A22F232F342F4427A8
:1030F000585FF3CF469537952795A795F0405395A0
:10310000C9F77EF41F16BA0B620B730B840BBAF06F
:103110009150A1F0FF0FBB1F661F771F881FC2F7DA
:103120000EC0BA0F621F731F841F48F487957795EE
:103130006795B795F7959E3F08F0B3CF9395880FA5
:1031400008F09927EE0F9795879508950CD002CF38
:10315000FADE40F0F1DE30F021F45F3F19F0E3CE0B
:1031600051112CCFE6CE07DF98F39923C9F35523ED
:10317000B1F3951B550BBB27AA276217730784076A
:1031800038F09F5F5F4F220F331F441FAA1FA9F320
:1031900033D00E2E3AF0E0E830D091505040E69512
:1031A000001CCAF729D0FE2F27D0660F771F881F73
:1031B000BB1F261737074807AB07B0E809F0BB0B62
:1031C000802DBF01FF2793585F4F2AF09E3F510586
:1031D00068F0A9CEF3CE5F3FECF3983EDCF3869522
:1031E00077956795B795F7959F5FC9F7880F911DFC
:1031F0009695879597F90895E1E0660F771F881FE8
:10320000BB1F621773078407BA0720F0621B730B9A
:10321000840BBA0BEE1F88F7E0950895FA01EE0FC4
:10322000FF1F30962105310599F16115710561F493
:103230008038BFE39B0749F168949038810561F0BD
:103240008038BFEF9B0741F0992342F5FF3FE1052E
:103250003105210511F1E8940894E795D901AA23D5
:1032600029F4AB2FBE2FF85FD0F310C0FF5F70F4CE
:10327000A695E0F7F73950F019F0FF3A38F49F7748
:103280009F930CD00F9007FC905808953EF051CEBC
:1032900060E070E080E89FE308954FE79F775F93D9
:1032A0004F933F932F939ED02F913F914F915F91DA
:1032B000D7DD05C019F40EF036CE7FCE3ACE63DEF0
:1032C000C8F39638C0F707F80F92E8942BE33AEA70
:1032D00048EB5FE7D3DD0F920F920F924DB75EB7C9
:1032E0000F92C0D0E8E0F1E016D04F915F91EF91DE
:1032F000FF91E595EE1FFF1F49F0FE57E068442758
:10330000EE0F441FFA95E1F74195550B32D00F901F
:1033100007FE26C00895DF93CF931F930F93FF926C
:10332000EF92DF927B018C01689405C0DA2EEF01E9
:10333000A3DDFE01E894A591259135914591559124
:10334000AEF3EF01B0DEFE019701A801DA9479F740
:10335000DF90EF90FF900F911F91CF91DF91089533
:103360009B01AC0160E070E080E89FE3EFCEDBCD35
:10337000ACC009DEE8F39923D9F3940F511DBBF3D8
:103380009150504094F059F0882332F0660F771F27
:10339000881F91505040C1F79E3F510544F7880F58
:1033A000911D9695879597F908955F3FACF0983EEB
:1033B0009CF0BB27869577956795B79508F4B16023
:1033C0009395C1F7BB0F58F711F460FFE8CF6F5F1B
:1033D0007F4F8F4F9F4FE3CFF1CD0EF076C0A9CD39
:1033E0006894A1CDD0DDC8F39923D1F3C6F3DF9360
:1033F000CF931F930F93FF92C92FDD2788232AF0C5
:103400002197660F771F881FDAF720E030E040E849
:103410005FEB9FE3883920F0803E30F021968F7774
:1034200031DEE0E3F1E003C02DDEEDE5F1E073DF36
:103430008B01BE01EC01FB2E6F5771097595771F4B
:10344000880B990BD2DC28E132E741E35FE314DD1E
:10345000AF2D9801AE01FF900F911F91CF91DF9199
:1034600022DE78CDFA01DC01AA0FBB1F9B01AC0163
:10347000BF5728F422273327442750781FC0B7515D
:1034800088F4AB2F0024469537952795011CA3950A
:10349000D2F3002069F0220F331F441FB395DAF3F3
:1034A0000DD0EFCD61307105A0E88A07B94630F440
:1034B0009B01AC016627772788279078309621F00A
:1034C000208331834283538308959F3F31F091508D
:1034D00020F4879577956795B795880F911D9695F8
:1034E000879597F90895DB018F939F9389DDBF91AD
:1034F000AF91A29F800D911DA39F900DB29F900D43
:1035000011240895991B79E004C0991F961708F0BB
:10351000961B881F7A95C9F780950895EE0FFF1FB7
:10352000881F8BBF0790F691E02D1994DF93CF93FE
:103530001F930F939A9DF02D219FF00D8B9DF00D01
:103540008A9DE02DF10D039FF00D029FE00DF11D0E
:103550004E9DE00DF11D5E9DF00D4F9DF00D7F9392
:103560006F93BF92AF925F934F93D5017BDD8B0139
:10357000AC01D70177DDEB01E80FF91FD6011FD0B1
:103580002F913F91D6016EDDC60FD71FE81FF91F9F
:10359000AF91BF9114D02F913F9164DDC60FD71F1B
:1035A000E81FF91FD6015EDDE60FF71F9801BE0187
:1035B000CF0111240F911F91CF91DF91089552DD1A
:1035C000460F571FC81FD91F08F43196089597FB5F
:1035D00057FF0BC09F938F9308D06E1B7F0BAF914B
:1035E000BF918A0B9B0B0895E894DF93CF93FC0166
:1035F000DB0138DD7F936F93E9019A01AC01BF9342
:10360000AF933F932F93DF012DDD26F46C1B7D0BD1
:10361000820B930B9E01EB01FC01D1DFAF91BF91B7
:103620002F913F91CCDFBE01CF01F9012F913F9146
:10363000CF91DF910895689401C0E894F92FF12BA0
:103640000AF027C0A0E0B0E0E7E2FBE193C0092E5A
:1036500005941AF479D0112392F4F0E80F26FFEFC5
:10366000E094F09400951095B094C094D094A194F7
:10367000BF0ACF0ADF0AEF0AFF0A0F0B1F0B13D096
:1036800007FC62D0CDB7DEB7ECE090C0689401C013
:10369000E8948F929F92CF93DF9305D0DF91CF91E3
:1036A0009F908F90089588249924F401E401B0E458
:1036B0009F93AA279A158B049C04ED05FE05CF0560
:1036C000D007A10798F4AD2FDC2FCF2FFE2FE92DC7
:1036D000982C892E982F872F762F652F542F432FC4
:1036E000322F2227B85031F7BF9127C01B2EBF9130
:1036F000BB27220F331F441F551F661F771F881FCC
:10370000991F881C991CEE1FFF1FCC1FDD1FAA1FCD
:10371000BB1F8A149B04EC05FD05CE05DF05A00741
:10372000B10748F08A189B08EC09FD09CE09DF09AA
:10373000A00BB10B21601A94E1F62EF49401AF01B5
:10374000BE01CD01000C089560957095809590950F
:1037500030954095509521953F4F4F4F5F4F6F4F9C
:103760007F4F8F4F9F4F08952F923F924F925F92BE
:103770006F927F928F929F92AF92BF92CF92DF9281
:10378000EF92FF920F931F93CF93DF93CDB7DEB7E6
:10379000CA1BDB0B0FB6F894DEBF0FBECDBF19946A
:1037A0002A88398848885F846E847D848C849B84D1
:1037B000AA84B984C884DF80EE80FD800C811B81DF
:1037C000AA81B981CE0FD11D0FB6F894DEBF0FBE0E
:1037D000CDBFED0108950F93083090F0982F872FFB
:1037E000762F652F542F432F322F22270850F4CFE6
:1037F000220F331F441F551F661F771F881F991FF5
:103800000A95B2F70F91089597FB10F816940008E7
:103810000F93083098F00850232F342F452F562F40
:10382000672F782F892F902DF4CF05949795879542
:103830007795679557954795379527950A95AAF7F0
:103840000F9108952A0D3B1D4C1D5D1D6E1D7F1DA2
:10385000801F911F08950024A7FD00942A0F301D9A
:10386000401D501D601D701D801D901D08952A195A
:103870003B094C095D096E097F09800B910B089586
:103880000024A7FD00942A17300540055005600567
:0C3890007005800590050895F894FFCFA6
:10389C00000000000D027B01A6015302D701B50107
:1038AC00C90100000000A0047104CF0445046904A0
:0C38BC005504460468657265000D0A00A2
:00000001FF
